{
  "contractName": "HelloWorld",
  "abi": [
    {
      "inputs": [],
      "stateMutability": "nonpayable",
      "type": "constructor"
    },
    {
      "inputs": [
        {
          "internalType": "address",
          "name": "",
          "type": "address"
        }
      ],
      "name": "balance",
      "outputs": [
        {
          "internalType": "uint256",
          "name": "",
          "type": "uint256"
        }
      ],
      "stateMutability": "view",
      "type": "function"
    },
    {
      "inputs": [],
      "name": "getName",
      "outputs": [
        {
          "internalType": "string",
          "name": "",
          "type": "string"
        }
      ],
      "stateMutability": "view",
      "type": "function"
    },
    {
      "inputs": [
        {
          "internalType": "string",
          "name": "_name",
          "type": "string"
        }
      ],
      "name": "setName",
      "outputs": [],
      "stateMutability": "nonpayable",
      "type": "function"
    }
  ],
  "bytecode": "0x608060405234801561001057600080fd5b506040518060400160405280600481526020017f74657374000000000000000000000000000000000000000000000000000000008152506000908051906020019061005c929190610062565b50610166565b82805461006e90610134565b90600052602060002090601f01602090048101928261009057600085556100d7565b82601f106100a957805160ff19168380011785556100d7565b828001600101855582156100d7579182015b828111156100d65782518255916020019190600101906100bb565b5b5090506100e491906100e8565b5090565b5b808211156101015760008160009055506001016100e9565b5090565b7f4e487b7100000000000000000000000000000000000000000000000000000000600052602260045260246000fd5b6000600282049050600182168061014c57607f821691505b602082108114156101605761015f610105565b5b50919050565b6105ba806101756000396000f3fe608060405234801561001057600080fd5b50600436106100415760003560e01c806317d7de7c14610046578063c47f002714610064578063e3d670d714610080575b600080fd5b61004e6100b0565b60405161005b91906102b0565b60405180910390f35b61007e6004803603810190610079919061041b565b610142565b005b61009a600480360381019061009591906104c2565b61015c565b6040516100a79190610508565b60405180910390f35b6060600080546100bf90610552565b80601f01602080910402602001604051908101604052809291908181526020018280546100eb90610552565b80156101385780601f1061010d57610100808354040283529160200191610138565b820191906000526020600020905b81548152906001019060200180831161011b57829003601f168201915b5050505050905090565b8060009080519060200190610158929190610174565b5050565b60016020528060005260406000206000915090505481565b82805461018090610552565b90600052602060002090601f0160209004810192826101a257600085556101e9565b82601f106101bb57805160ff19168380011785556101e9565b828001600101855582156101e9579182015b828111156101e85782518255916020019190600101906101cd565b5b5090506101f691906101fa565b5090565b5b808211156102135760008160009055506001016101fb565b5090565b600081519050919050565b600082825260208201905092915050565b60005b83811015610251578082015181840152602081019050610236565b83811115610260576000848401525b50505050565b6000601f19601f8301169050919050565b600061028282610217565b61028c8185610222565b935061029c818560208601610233565b6102a581610266565b840191505092915050565b600060208201905081810360008301526102ca8184610277565b905092915050565b6000604051905090565b600080fd5b600080fd5b600080fd5b600080fd5b7f4e487b7100000000000000000000000000000000000000000000000000000000600052604160045260246000fd5b61032882610266565b810181811067ffffffffffffffff82111715610347576103466102f0565b5b80604052505050565b600061035a6102d2565b9050610366828261031f565b919050565b600067ffffffffffffffff821115610386576103856102f0565b5b61038f82610266565b9050602081019050919050565b82818337600083830152505050565b60006103be6103b98461036b565b610350565b9050828152602081018484840111156103da576103d96102eb565b5b6103e584828561039c565b509392505050565b600082601f830112610402576104016102e6565b5b81356104128482602086016103ab565b91505092915050565b600060208284031215610431576104306102dc565b5b600082013567ffffffffffffffff81111561044f5761044e6102e1565b5b61045b848285016103ed565b91505092915050565b600073ffffffffffffffffffffffffffffffffffffffff82169050919050565b600061048f82610464565b9050919050565b61049f81610484565b81146104aa57600080fd5b50565b6000813590506104bc81610496565b92915050565b6000602082840312156104d8576104d76102dc565b5b60006104e6848285016104ad565b91505092915050565b6000819050919050565b610502816104ef565b82525050565b600060208201905061051d60008301846104f9565b92915050565b7f4e487b7100000000000000000000000000000000000000000000000000000000600052602260045260246000fd5b6000600282049050600182168061056a57607f821691505b6020821081141561057e5761057d610523565b5b5091905056fea2646970667358221220764fb2e0a030295bbbaac0f584f2694cc4344a89d0bd77c57931d4c72ca15f1164736f6c634300080a0033",
  "immutableReferences": {},
  "source": "// SPDX-License-Identifier: MIT\npragma solidity >=0.4.22 <0.9.0;\n/*\ncontract HelloWorld {\n\n    string private name;\n    constructor(string memory _name ){\n\n        name = _name;\n\n    }\n\n    function getName() public view returns ( string memory) {\n        return name;\n    }\n\n    function setName(string memory _name) public{\n\n        name = _name;\n    }\n\n}\n*/\n\n\ncontract HelloWorld {\n\n  string private name;\n  mapping (address => uint256) public balance;\n\n  constructor(){\n    name = \"test\";\n  \n  }\n\n  function getName() public view returns (string memory) {\n    return name;\n  }\n\n  function setName(string memory  _name) public {\n    name = _name;\n  }\n}",
  "sourcePath": "/Users/izzetemredemir/Documents/truffle/proje2/contracts/hello.sol",
  "compiler": {
    "name": "solc",
    "version": "0.8.10+commit.fc410830.Emscripten.clang"
  },
  "schemaVersion": "3.4.3",
  "updatedAt": "2021-11-14T21:18:12.964Z",
  "devdoc": {
    "kind": "dev",
    "methods": {},
    "version": 1
  },
  "userdoc": {
    "kind": "user",
    "methods": {},
    "version": 1
  }
}